:1000000001308A00B2290000CC224410C41800003C
:10001000CC22441044190001CC224410C419000021
:100020002930840083130008031924280130F800C4
:10003000F701F70B1928F80B18284A30F700F70BCF
:100040001F282228800B16280800300EF039F700F0
:100050000F30060577048600000006142F280610CE
:1000600008000608F700060E0F39F800080083168E
:10007000061086100611831286100F3083160605AF
:10008000F0388600831206150000061400003120A7
:100090007808B0000610000006140000312078082F
:1000A000AF0006100F308316060586008312300E4F
:1000B000F700F030F70577082F04F8007808AF0054
:1000C000AF1B3D282D1C86102D188614000006112C
:1000D000000006102E0EAF000F30AF052F08B00045
:1000E00025202E080F39AF00B00025200800283049
:1000F000A5000C30A6000130A7000630A8000610AD
:10010000861006110F30831606058600061086102D
:1001100006110F308312A90010200130A40024081A
:10012000033C031C9B280330B00025200530A900A8
:100130001020A40A8F280230B00025200530A90025
:100140001020A4012408033C031CB22825302407F6
:10015000840083130008A900AD012908AE003720F0
:10016000A40AA2288A110A12C1292A0BB828BB287E
:100170004030AB00BC28AB0101302902AB072B0893
:100180008038AC00AD012C08AE00372008002808EC
:10019000073A0319D5280B3A0319DA28063A031946
:1001A000E228023A0319E828ED280130A900AA0044
:1001B000B520F228AD010130AE0037200230A90091
:1001C0001020F2280130A9000230AA00B520F22840
:1001D000AD011030AE003720F2280130AD00280804
:1001E000AE00372008000B08A5008B1383160317F9
:1001F0008C170C140000000083120313A51B8B172F
:1002000003170C087F39031947290313A5000317A7
:100210000D080313A60003170F080313A7002508F2
:10022000A800C720260803178D000313270803170B
:100230008F0003130B08A8008B13831603178C176A
:100240000C140000000083120313A81B8B17031764
:100250000C0D0E0D7F39031947290313A500031751
:100260000D080313A60003170F080313A7002508A2
:10027000A800C720260803178D00031327080317BB
:100280008F008D0A03198F0A0313F3280317031332
:1002900008002408003A03195429013A0319732964
:1002A000033A03199129AF290130A900AA00B5200A
:1002B000043003178D0000308F000313F3208316E2
:1002C00085148312851C722920112008831687004B
:1002D0000430831287060230A5009630A900102052
:1002E000A50B6D29AF290130A900AA00B52008305F
:1002F00003178D0000308F000313F320831685143D
:100300008312851C9029A0102008831687000230D4
:1003100083128706A5009630A9001020A50B8B2913
:10032000AF290130A900AA00B5200C3003178D00B9
:1003300000308F000313F320831685148312851C6D
:10034000AF2920102008831687000130831287060A
:100350000230A5009630A9001020A50BAA298A1109
:100360000A12D62903081F398300FF30A000A2011A
:10037000A10183161F149F141F159F11831383124D
:100380007728A301831605148312051CCF29A30A1D
:100390000230A4009630A9001020A40BCA2923081B
:1003A000023C031CA3012308A4004929C2296300BD
:02400E00713F00
:00000001FF
;PIC16F876
;CRC=4753  CREATED="03-ene.-19 13:16"
